{
  "_format": "hh-sol-artifact-1",
  "contractName": "Mypubg",
  "sourceName": "contracts/Mypubg.sol",
  "abi": [
    {
      "inputs": [],
      "stateMutability": "nonpayable",
      "type": "constructor"
    },
    {
      "anonymous": false,
      "inputs": [
        {
          "indexed": true,
          "internalType": "address",
          "name": "owner",
          "type": "address"
        },
        {
          "indexed": true,
          "internalType": "address",
          "name": "approved",
          "type": "address"
        },
        {
          "indexed": true,
          "internalType": "uint256",
          "name": "tokenId",
          "type": "uint256"
        }
      ],
      "name": "Approval",
      "type": "event"
    },
    {
      "anonymous": false,
      "inputs": [
        {
          "indexed": true,
          "internalType": "address",
          "name": "owner",
          "type": "address"
        },
        {
          "indexed": true,
          "internalType": "address",
          "name": "operator",
          "type": "address"
        },
        {
          "indexed": false,
          "internalType": "bool",
          "name": "approved",
          "type": "bool"
        }
      ],
      "name": "ApprovalForAll",
      "type": "event"
    },
    {
      "anonymous": false,
      "inputs": [
        {
          "indexed": true,
          "internalType": "address",
          "name": "previousOwner",
          "type": "address"
        },
        {
          "indexed": true,
          "internalType": "address",
          "name": "newOwner",
          "type": "address"
        }
      ],
      "name": "OwnershipTransferred",
      "type": "event"
    },
    {
      "anonymous": false,
      "inputs": [
        {
          "indexed": true,
          "internalType": "address",
          "name": "from",
          "type": "address"
        },
        {
          "indexed": true,
          "internalType": "address",
          "name": "to",
          "type": "address"
        },
        {
          "indexed": true,
          "internalType": "uint256",
          "name": "tokenId",
          "type": "uint256"
        }
      ],
      "name": "Transfer",
      "type": "event"
    },
    {
      "inputs": [
        {
          "internalType": "address",
          "name": "to",
          "type": "address"
        },
        {
          "internalType": "uint256",
          "name": "tokenId",
          "type": "uint256"
        }
      ],
      "name": "approve",
      "outputs": [],
      "stateMutability": "nonpayable",
      "type": "function"
    },
    {
      "inputs": [
        {
          "internalType": "address",
          "name": "owner",
          "type": "address"
        }
      ],
      "name": "balanceOf",
      "outputs": [
        {
          "internalType": "uint256",
          "name": "",
          "type": "uint256"
        }
      ],
      "stateMutability": "view",
      "type": "function"
    },
    {
      "inputs": [
        {
          "internalType": "uint256",
          "name": "tokenId",
          "type": "uint256"
        }
      ],
      "name": "burn",
      "outputs": [],
      "stateMutability": "nonpayable",
      "type": "function"
    },
    {
      "inputs": [
        {
          "internalType": "uint256",
          "name": "tokenId",
          "type": "uint256"
        }
      ],
      "name": "buyCard",
      "outputs": [],
      "stateMutability": "payable",
      "type": "function"
    },
    {
      "inputs": [
        {
          "internalType": "uint256",
          "name": "tokenId",
          "type": "uint256"
        }
      ],
      "name": "deleteCard",
      "outputs": [],
      "stateMutability": "nonpayable",
      "type": "function"
    },
    {
      "inputs": [
        {
          "internalType": "uint256",
          "name": "tokenId",
          "type": "uint256"
        }
      ],
      "name": "getApproved",
      "outputs": [
        {
          "internalType": "address",
          "name": "",
          "type": "address"
        }
      ],
      "stateMutability": "view",
      "type": "function"
    },
    {
      "inputs": [],
      "name": "getCards",
      "outputs": [
        {
          "components": [
            {
              "internalType": "uint256",
              "name": "index",
              "type": "uint256"
            },
            {
              "internalType": "address",
              "name": "owner",
              "type": "address"
            },
            {
              "internalType": "uint256",
              "name": "price",
              "type": "uint256"
            },
            {
              "internalType": "bool",
              "name": "onSale",
              "type": "bool"
            }
          ],
          "internalType": "struct Mypubg.Card[]",
          "name": "",
          "type": "tuple[]"
        }
      ],
      "stateMutability": "view",
      "type": "function"
    },
    {
      "inputs": [
        {
          "internalType": "address",
          "name": "owner",
          "type": "address"
        },
        {
          "internalType": "address",
          "name": "operator",
          "type": "address"
        }
      ],
      "name": "isApprovedForAll",
      "outputs": [
        {
          "internalType": "bool",
          "name": "",
          "type": "bool"
        }
      ],
      "stateMutability": "view",
      "type": "function"
    },
    {
      "inputs": [
        {
          "internalType": "string",
          "name": "uri",
          "type": "string"
        },
        {
          "internalType": "uint256",
          "name": "_price",
          "type": "uint256"
        }
      ],
      "name": "mintCard",
      "outputs": [],
      "stateMutability": "nonpayable",
      "type": "function"
    },
    {
      "inputs": [],
      "name": "name",
      "outputs": [
        {
          "internalType": "string",
          "name": "",
          "type": "string"
        }
      ],
      "stateMutability": "view",
      "type": "function"
    },
    {
      "inputs": [],
      "name": "owner",
      "outputs": [
        {
          "internalType": "address",
          "name": "",
          "type": "address"
        }
      ],
      "stateMutability": "view",
      "type": "function"
    },
    {
      "inputs": [
        {
          "internalType": "uint256",
          "name": "tokenId",
          "type": "uint256"
        }
      ],
      "name": "ownerOf",
      "outputs": [
        {
          "internalType": "address",
          "name": "",
          "type": "address"
        }
      ],
      "stateMutability": "view",
      "type": "function"
    },
    {
      "inputs": [],
      "name": "renounceOwnership",
      "outputs": [],
      "stateMutability": "nonpayable",
      "type": "function"
    },
    {
      "inputs": [
        {
          "internalType": "address",
          "name": "from",
          "type": "address"
        },
        {
          "internalType": "address",
          "name": "to",
          "type": "address"
        },
        {
          "internalType": "uint256",
          "name": "tokenId",
          "type": "uint256"
        }
      ],
      "name": "safeTransferFrom",
      "outputs": [],
      "stateMutability": "nonpayable",
      "type": "function"
    },
    {
      "inputs": [
        {
          "internalType": "address",
          "name": "from",
          "type": "address"
        },
        {
          "internalType": "address",
          "name": "to",
          "type": "address"
        },
        {
          "internalType": "uint256",
          "name": "tokenId",
          "type": "uint256"
        },
        {
          "internalType": "bytes",
          "name": "_data",
          "type": "bytes"
        }
      ],
      "name": "safeTransferFrom",
      "outputs": [],
      "stateMutability": "nonpayable",
      "type": "function"
    },
    {
      "inputs": [
        {
          "internalType": "uint256",
          "name": "tokenId",
          "type": "uint256"
        },
        {
          "internalType": "uint256",
          "name": "_price",
          "type": "uint256"
        }
      ],
      "name": "sellCard",
      "outputs": [],
      "stateMutability": "nonpayable",
      "type": "function"
    },
    {
      "inputs": [
        {
          "internalType": "address",
          "name": "operator",
          "type": "address"
        },
        {
          "internalType": "bool",
          "name": "approved",
          "type": "bool"
        }
      ],
      "name": "setApprovalForAll",
      "outputs": [],
      "stateMutability": "nonpayable",
      "type": "function"
    },
    {
      "inputs": [
        {
          "internalType": "bytes4",
          "name": "interfaceId",
          "type": "bytes4"
        }
      ],
      "name": "supportsInterface",
      "outputs": [
        {
          "internalType": "bool",
          "name": "",
          "type": "bool"
        }
      ],
      "stateMutability": "view",
      "type": "function"
    },
    {
      "inputs": [],
      "name": "symbol",
      "outputs": [
        {
          "internalType": "string",
          "name": "",
          "type": "string"
        }
      ],
      "stateMutability": "view",
      "type": "function"
    },
    {
      "inputs": [
        {
          "internalType": "uint256",
          "name": "tokenId",
          "type": "uint256"
        }
      ],
      "name": "tokenURI",
      "outputs": [
        {
          "internalType": "string",
          "name": "",
          "type": "string"
        }
      ],
      "stateMutability": "view",
      "type": "function"
    },
    {
      "inputs": [
        {
          "internalType": "address",
          "name": "from",
          "type": "address"
        },
        {
          "internalType": "address",
          "name": "to",
          "type": "address"
        },
        {
          "internalType": "uint256",
          "name": "tokenId",
          "type": "uint256"
        }
      ],
      "name": "transferFrom",
      "outputs": [],
      "stateMutability": "nonpayable",
      "type": "function"
    },
    {
      "inputs": [
        {
          "internalType": "address",
          "name": "newOwner",
          "type": "address"
        }
      ],
      "name": "transferOwnership",
      "outputs": [],
      "stateMutability": "nonpayable",
      "type": "function"
    },
    {
      "inputs": [
        {
          "internalType": "uint256",
          "name": "tokenId",
          "type": "uint256"
        }
      ],
      "name": "unlistCard",
      "outputs": [],
      "stateMutability": "nonpayable",
      "type": "function"
    }
  ],
  "bytecode": "0x60806040523480156200001157600080fd5b506040518060400160405280600681526020017f4d797075626700000000000000000000000000000000000000000000000000008152506040518060400160405280600281526020017f5050000000000000000000000000000000000000000000000000000000000000815250816000908051906020019062000096929190620001a6565b508060019080519060200190620000af929190620001a6565b505050620000d2620000c6620000d860201b60201c565b620000e060201b60201c565b620002bb565b600033905090565b6000600760009054906101000a900473ffffffffffffffffffffffffffffffffffffffff16905081600760006101000a81548173ffffffffffffffffffffffffffffffffffffffff021916908373ffffffffffffffffffffffffffffffffffffffff1602179055508173ffffffffffffffffffffffffffffffffffffffff168173ffffffffffffffffffffffffffffffffffffffff167f8be0079c531659141344cd1fd0a4f28419497f9722a3daafe3b4186f6b6457e060405160405180910390a35050565b828054620001b49062000256565b90600052602060002090601f016020900481019282620001d8576000855562000224565b82601f10620001f357805160ff191683800117855562000224565b8280016001018555821562000224579182015b828111156200022357825182559160200191906001019062000206565b5b50905062000233919062000237565b5090565b5b808211156200025257600081600090555060010162000238565b5090565b600060028204905060018216806200026f57607f821691505b602082108114156200028657620002856200028c565b5b50919050565b7f4e487b7100000000000000000000000000000000000000000000000000000000600052602260045260246000fd5b61436d80620002cb6000396000f3fe6080604052600436106101405760003560e01c8063715018a6116100b6578063b88d4fde1161006f578063b88d4fde14610444578063c70f5eaa1461046d578063c87b56dd14610489578063e985e9c5146104c6578063f1f96ac014610503578063f2fde38b1461052c57610140565b8063715018a61461035a5780638da5cb5b1461037157806395d89b411461039c578063a22cb465146103c7578063a5ccfb06146103f0578063b0df9e531461041957610140565b8063306b0fcc11610108578063306b0fcc1461023c57806342842e0e1461026557806342966c681461028e5780635e1acf65146102b75780636352211e146102e057806370a082311461031d57610140565b806301ffc9a71461014557806306fdde0314610182578063081812fc146101ad578063095ea7b3146101ea57806323b872dd14610213575b600080fd5b34801561015157600080fd5b5061016c60048036038101906101679190612d6d565b610555565b60405161017991906134b3565b60405180910390f35b34801561018e57600080fd5b50610197610637565b6040516101a491906134ce565b60405180910390f35b3480156101b957600080fd5b506101d460048036038101906101cf9190612e13565b6106c9565b6040516101e1919061342a565b60405180910390f35b3480156101f657600080fd5b50610211600480360381019061020c9190612d31565b61074e565b005b34801561021f57600080fd5b5061023a60048036038101906102359190612c2b565b610866565b005b34801561024857600080fd5b50610263600480360381019061025e9190612dbf565b6108c6565b005b34801561027157600080fd5b5061028c60048036038101906102879190612c2b565b6109cc565b005b34801561029a57600080fd5b506102b560048036038101906102b09190612e13565b6109ec565b005b3480156102c357600080fd5b506102de60048036038101906102d99190612e13565b610a48565b005b3480156102ec57600080fd5b5061030760048036038101906103029190612e13565b610bed565b604051610314919061342a565b60405180910390f35b34801561032957600080fd5b50610344600480360381019061033f9190612bc6565b610c9f565b6040516103519190613830565b60405180910390f35b34801561036657600080fd5b5061036f610d57565b005b34801561037d57600080fd5b50610386610ddf565b604051610393919061342a565b60405180910390f35b3480156103a857600080fd5b506103b1610e09565b6040516103be91906134ce565b60405180910390f35b3480156103d357600080fd5b506103ee60048036038101906103e99190612cf5565b610e9b565b005b3480156103fc57600080fd5b5061041760048036038101906104129190612e3c565b610eb1565b005b34801561042557600080fd5b5061042e611016565b60405161043b9190613491565b60405180910390f35b34801561045057600080fd5b5061046b60048036038101906104669190612c7a565b6111f2565b005b61048760048036038101906104829190612e13565b611254565b005b34801561049557600080fd5b506104b060048036038101906104ab9190612e13565b611531565b6040516104bd91906134ce565b60405180910390f35b3480156104d257600080fd5b506104ed60048036038101906104e89190612bef565b611543565b6040516104fa91906134b3565b60405180910390f35b34801561050f57600080fd5b5061052a60048036038101906105259190612e13565b6115d7565b005b34801561053857600080fd5b50610553600480360381019061054e9190612bc6565b61171f565b005b60007f80ac58cd000000000000000000000000000000000000000000000000000000007bffffffffffffffffffffffffffffffffffffffffffffffffffffffff1916827bffffffffffffffffffffffffffffffffffffffffffffffffffffffff1916148061062057507f5b5e139f000000000000000000000000000000000000000000000000000000007bffffffffffffffffffffffffffffffffffffffffffffffffffffffff1916827bffffffffffffffffffffffffffffffffffffffffffffffffffffffff1916145b80610630575061062f82611817565b5b9050919050565b60606000805461064690613aca565b80601f016020809104026020016040519081016040528092919081815260200182805461067290613aca565b80156106bf5780601f10610694576101008083540402835291602001916106bf565b820191906000526020600020905b8154815290600101906020018083116106a257829003601f168201915b5050505050905090565b60006106d482611881565b610713576040517f08c379a000000000000000000000000000000000000000000000000000000000815260040161070a90613750565b60405180910390fd5b6004600083815260200190815260200160002060009054906101000a900473ffffffffffffffffffffffffffffffffffffffff169050919050565b600061075982610bed565b90508073ffffffffffffffffffffffffffffffffffffffff168373ffffffffffffffffffffffffffffffffffffffff1614156107ca576040517f08c379a00000000000000000000000000000000000000000000000000000000081526004016107c1906137b0565b60405180910390fd5b8073ffffffffffffffffffffffffffffffffffffffff166107e96118ed565b73ffffffffffffffffffffffffffffffffffffffff1614806108185750610817816108126118ed565b611543565b5b610857576040517f08c379a000000000000000000000000000000000000000000000000000000000815260040161084e90613650565b60405180910390fd5b61086183836118f5565b505050565b6108776108716118ed565b826119ae565b6108b6576040517f08c379a00000000000000000000000000000000000000000000000000000000081526004016108ad906137d0565b60405180910390fd5b6108c1838383611a8c565b505050565b670de0b6b3a7640000811015610911576040517f08c379a000000000000000000000000000000000000000000000000000000000815260040161090890613570565b60405180910390fd5b600061091d6008611cf3565b90506109296008611d01565b6000600960008381526020019081526020016000209050818160000181905550338160010160006101000a81548173ffffffffffffffffffffffffffffffffffffffff021916908373ffffffffffffffffffffffffffffffffffffffff16021790555082816002018190555060008160030160006101000a81548160ff0219169083151502179055506109bc3383611d17565b6109c68285611d35565b50505050565b6109e7838383604051806020016040528060008152506111f2565b505050565b6109fd6109f76118ed565b826119ae565b610a3c576040517f08c379a0000000000000000000000000000000000000000000000000000000008152600401610a3390613810565b60405180910390fd5b610a4581611da9565b50565b803373ffffffffffffffffffffffffffffffffffffffff166009600083815260200190815260200160002060010160009054906101000a900473ffffffffffffffffffffffffffffffffffffffff1673ffffffffffffffffffffffffffffffffffffffff1614610aed576040517f08c379a0000000000000000000000000000000000000000000000000000000008152600401610ae4906135d0565b60405180910390fd5b816009600082815260200190815260200160002060030160009054906101000a900460ff1615610b52576040517f08c379a0000000000000000000000000000000000000000000000000000000008152600401610b49906136d0565b60405180910390fd5b600960008481526020019081526020016000206000808201600090556001820160006101000a81549073ffffffffffffffffffffffffffffffffffffffff021916905560028201600090556003820160006101000a81549060ff021916905550506001600a600085815260200190815260200160002060006101000a81548160ff021916908315150217905550610be883611da9565b505050565b6000806002600084815260200190815260200160002060009054906101000a900473ffffffffffffffffffffffffffffffffffffffff169050600073ffffffffffffffffffffffffffffffffffffffff168173ffffffffffffffffffffffffffffffffffffffff161415610c96576040517f08c379a0000000000000000000000000000000000000000000000000000000008152600401610c8d90613690565b60405180910390fd5b80915050919050565b60008073ffffffffffffffffffffffffffffffffffffffff168273ffffffffffffffffffffffffffffffffffffffff161415610d10576040517f08c379a0000000000000000000000000000000000000000000000000000000008152600401610d0790613670565b60405180910390fd5b600360008373ffffffffffffffffffffffffffffffffffffffff1673ffffffffffffffffffffffffffffffffffffffff168152602001908152602001600020549050919050565b610d5f6118ed565b73ffffffffffffffffffffffffffffffffffffffff16610d7d610ddf565b73ffffffffffffffffffffffffffffffffffffffff1614610dd3576040517f08c379a0000000000000000000000000000000000000000000000000000000008152600401610dca90613770565b60405180910390fd5b610ddd6000611db5565b565b6000600760009054906101000a900473ffffffffffffffffffffffffffffffffffffffff16905090565b606060018054610e1890613aca565b80601f0160208091040260200160405190810160405280929190818152602001828054610e4490613aca565b8015610e915780601f10610e6657610100808354040283529160200191610e91565b820191906000526020600020905b815481529060010190602001808311610e7457829003601f168201915b5050505050905090565b610ead610ea66118ed565b8383611e7b565b5050565b813373ffffffffffffffffffffffffffffffffffffffff166009600083815260200190815260200160002060010160009054906101000a900473ffffffffffffffffffffffffffffffffffffffff1673ffffffffffffffffffffffffffffffffffffffff1614610f56576040517f08c379a0000000000000000000000000000000000000000000000000000000008152600401610f4d906135d0565b60405180910390fd5b826009600082815260200190815260200160002060030160009054906101000a900460ff1615610fbb576040517f08c379a0000000000000000000000000000000000000000000000000000000008152600401610fb2906136d0565b60405180910390fd5b60016009600086815260200190815260200160002060030160006101000a81548160ff021916908315150217905550826009600086815260200190815260200160002060020181905550611010333086611a8c565b50505050565b606060006110246008611cf3565b905060008167ffffffffffffffff811115611068577f4e487b7100000000000000000000000000000000000000000000000000000000600052604160045260246000fd5b6040519080825280602002602001820160405280156110a157816020015b61108e61296a565b8152602001906001900390816110865790505b509050600080600090505b838110156111e857600a600082815260200190815260200160002060009054906101000a900460ff16156110df576111d5565b60096000828152602001908152602001600020604051806080016040529081600082015481526020016001820160009054906101000a900473ffffffffffffffffffffffffffffffffffffffff1673ffffffffffffffffffffffffffffffffffffffff1673ffffffffffffffffffffffffffffffffffffffff168152602001600282015481526020016003820160009054906101000a900460ff1615151515815250508383815181106111bb577f4e487b7100000000000000000000000000000000000000000000000000000000600052603260045260246000fd5b602002602001018190525081806111d190613b2d565b9250505b80806111e090613b2d565b9150506110ac565b5081935050505090565b6112036111fd6118ed565b836119ae565b611242576040517f08c379a0000000000000000000000000000000000000000000000000000000008152600401611239906137d0565b60405180910390fd5b61124e84848484611fe8565b50505050565b806009600082815260200190815260200160002060030160009054906101000a900460ff166112b8576040517f08c379a00000000000000000000000000000000000000000000000000000000081526004016112af906137f0565b60405180910390fd5b3373ffffffffffffffffffffffffffffffffffffffff166009600084815260200190815260200160002060010160009054906101000a900473ffffffffffffffffffffffffffffffffffffffff1673ffffffffffffffffffffffffffffffffffffffff16141561135d576040517f08c379a0000000000000000000000000000000000000000000000000000000008152600401611354906134f0565b60405180910390fd5b600960008381526020019081526020016000206002015434146113b5576040517f08c379a00000000000000000000000000000000000000000000000000000000081526004016113ac906136f0565b60405180910390fd5b60006009600084815260200190815260200160002060010160009054906101000a900473ffffffffffffffffffffffffffffffffffffffff169050336009600085815260200190815260200160002060010160006101000a81548173ffffffffffffffffffffffffffffffffffffffff021916908373ffffffffffffffffffffffffffffffffffffffff16021790555060006009600085815260200190815260200160002060030160006101000a81548160ff02191690831515021790555061147f303385611a8c565b60008173ffffffffffffffffffffffffffffffffffffffff16346040516114a590613415565b60006040518083038185875af1925050503d80600081146114e2576040519150601f19603f3d011682016040523d82523d6000602084013e6114e7565b606091505b505090508061152b576040517f08c379a000000000000000000000000000000000000000000000000000000000815260040161152290613550565b60405180910390fd5b50505050565b606061153c82612044565b9050919050565b6000600560008473ffffffffffffffffffffffffffffffffffffffff1673ffffffffffffffffffffffffffffffffffffffff16815260200190815260200160002060008373ffffffffffffffffffffffffffffffffffffffff1673ffffffffffffffffffffffffffffffffffffffff16815260200190815260200160002060009054906101000a900460ff16905092915050565b803373ffffffffffffffffffffffffffffffffffffffff166009600083815260200190815260200160002060010160009054906101000a900473ffffffffffffffffffffffffffffffffffffffff1673ffffffffffffffffffffffffffffffffffffffff161461167c576040517f08c379a0000000000000000000000000000000000000000000000000000000008152600401611673906135d0565b60405180910390fd5b816009600082815260200190815260200160002060030160009054906101000a900460ff166116e0576040517f08c379a00000000000000000000000000000000000000000000000000000000081526004016116d7906137f0565b60405180910390fd5b60006009600085815260200190815260200160002060030160006101000a81548160ff02191690831515021790555061171a303385611a8c565b505050565b6117276118ed565b73ffffffffffffffffffffffffffffffffffffffff16611745610ddf565b73ffffffffffffffffffffffffffffffffffffffff161461179b576040517f08c379a000000000000000000000000000000000000000000000000000000000815260040161179290613770565b60405180910390fd5b600073ffffffffffffffffffffffffffffffffffffffff168173ffffffffffffffffffffffffffffffffffffffff16141561180b576040517f08c379a000000000000000000000000000000000000000000000000000000000815260040161180290613530565b60405180910390fd5b61181481611db5565b50565b60007f01ffc9a7000000000000000000000000000000000000000000000000000000007bffffffffffffffffffffffffffffffffffffffffffffffffffffffff1916827bffffffffffffffffffffffffffffffffffffffffffffffffffffffff1916149050919050565b60008073ffffffffffffffffffffffffffffffffffffffff166002600084815260200190815260200160002060009054906101000a900473ffffffffffffffffffffffffffffffffffffffff1673ffffffffffffffffffffffffffffffffffffffff1614159050919050565b600033905090565b816004600083815260200190815260200160002060006101000a81548173ffffffffffffffffffffffffffffffffffffffff021916908373ffffffffffffffffffffffffffffffffffffffff160217905550808273ffffffffffffffffffffffffffffffffffffffff1661196883610bed565b73ffffffffffffffffffffffffffffffffffffffff167f8c5be1e5ebec7d5bd14f71427d1e84f3dd0314c0f7b2291e5b200ac8c7c3b92560405160405180910390a45050565b60006119b982611881565b6119f8576040517f08c379a00000000000000000000000000000000000000000000000000000000081526004016119ef90613630565b60405180910390fd5b6000611a0383610bed565b90508073ffffffffffffffffffffffffffffffffffffffff168473ffffffffffffffffffffffffffffffffffffffff161480611a7257508373ffffffffffffffffffffffffffffffffffffffff16611a5a846106c9565b73ffffffffffffffffffffffffffffffffffffffff16145b80611a835750611a828185611543565b5b91505092915050565b8273ffffffffffffffffffffffffffffffffffffffff16611aac82610bed565b73ffffffffffffffffffffffffffffffffffffffff1614611b02576040517f08c379a0000000000000000000000000000000000000000000000000000000008152600401611af990613590565b60405180910390fd5b600073ffffffffffffffffffffffffffffffffffffffff168273ffffffffffffffffffffffffffffffffffffffff161415611b72576040517f08c379a0000000000000000000000000000000000000000000000000000000008152600401611b69906135f0565b60405180910390fd5b611b7d838383612196565b611b886000826118f5565b6001600360008573ffffffffffffffffffffffffffffffffffffffff1673ffffffffffffffffffffffffffffffffffffffff1681526020019081526020016000206000828254611bd891906139e0565b925050819055506001600360008473ffffffffffffffffffffffffffffffffffffffff1673ffffffffffffffffffffffffffffffffffffffff1681526020019081526020016000206000828254611c2f9190613959565b92505081905550816002600083815260200190815260200160002060006101000a81548173ffffffffffffffffffffffffffffffffffffffff021916908373ffffffffffffffffffffffffffffffffffffffff160217905550808273ffffffffffffffffffffffffffffffffffffffff168473ffffffffffffffffffffffffffffffffffffffff167fddf252ad1be2c89b69c2b068fc378daa952ba7f163c4a11628f55a4df523b3ef60405160405180910390a4611cee83838361219b565b505050565b600081600001549050919050565b6001816000016000828254019250508190555050565b611d318282604051806020016040528060008152506121a0565b5050565b611d3e82611881565b611d7d576040517f08c379a0000000000000000000000000000000000000000000000000000000008152600401611d74906136b0565b60405180910390fd5b80600660008481526020019081526020016000209080519060200190611da49291906129aa565b505050565b611db2816121fb565b50565b6000600760009054906101000a900473ffffffffffffffffffffffffffffffffffffffff16905081600760006101000a81548173ffffffffffffffffffffffffffffffffffffffff021916908373ffffffffffffffffffffffffffffffffffffffff1602179055508173ffffffffffffffffffffffffffffffffffffffff168173ffffffffffffffffffffffffffffffffffffffff167f8be0079c531659141344cd1fd0a4f28419497f9722a3daafe3b4186f6b6457e060405160405180910390a35050565b8173ffffffffffffffffffffffffffffffffffffffff168373ffffffffffffffffffffffffffffffffffffffff161415611eea576040517f08c379a0000000000000000000000000000000000000000000000000000000008152600401611ee190613610565b60405180910390fd5b80600560008573ffffffffffffffffffffffffffffffffffffffff1673ffffffffffffffffffffffffffffffffffffffff16815260200190815260200160002060008473ffffffffffffffffffffffffffffffffffffffff1673ffffffffffffffffffffffffffffffffffffffff16815260200190815260200160002060006101000a81548160ff0219169083151502179055508173ffffffffffffffffffffffffffffffffffffffff168373ffffffffffffffffffffffffffffffffffffffff167f17307eab39ab6107e8899845ad3d59bd9653f200f220920489ca2b5937696c3183604051611fdb91906134b3565b60405180910390a3505050565b611ff3848484611a8c565b611fff8484848461224e565b61203e576040517f08c379a000000000000000000000000000000000000000000000000000000000815260040161203590613510565b60405180910390fd5b50505050565b606061204f82611881565b61208e576040517f08c379a000000000000000000000000000000000000000000000000000000000815260040161208590613730565b60405180910390fd5b60006006600084815260200190815260200160002080546120ae90613aca565b80601f01602080910402602001604051908101604052809291908181526020018280546120da90613aca565b80156121275780601f106120fc57610100808354040283529160200191612127565b820191906000526020600020905b81548152906001019060200180831161210a57829003601f168201915b5050505050905060006121386123e5565b905060008151141561214e578192505050612191565b60008251111561218357808260405160200161216b9291906133f1565b60405160208183030381529060405292505050612191565b61218c846123fc565b925050505b919050565b505050565b505050565b6121aa83836124a3565b6121b7600084848461224e565b6121f6576040517f08c379a00000000000000000000000000000000000000000000000000000000081526004016121ed90613510565b60405180910390fd5b505050565b6122048161267d565b600060066000838152602001908152602001600020805461222490613aca565b90501461224b5760066000828152602001908152602001600020600061224a9190612a30565b5b50565b600061226f8473ffffffffffffffffffffffffffffffffffffffff1661279a565b156123d8578373ffffffffffffffffffffffffffffffffffffffff1663150b7a026122986118ed565b8786866040518563ffffffff1660e01b81526004016122ba9493929190613445565b602060405180830381600087803b1580156122d457600080fd5b505af192505050801561230557506040513d601f19601f820116820180604052508101906123029190612d96565b60015b612388573d8060008114612335576040519150601f19603f3d011682016040523d82523d6000602084013e61233a565b606091505b50600081511415612380576040517f08c379a000000000000000000000000000000000000000000000000000000000815260040161237790613510565b60405180910390fd5b805181602001fd5b63150b7a0260e01b7bffffffffffffffffffffffffffffffffffffffffffffffffffffffff1916817bffffffffffffffffffffffffffffffffffffffffffffffffffffffff1916149150506123dd565b600190505b949350505050565b606060405180602001604052806000815250905090565b606061240782611881565b612446576040517f08c379a000000000000000000000000000000000000000000000000000000000815260040161243d90613790565b60405180910390fd5b60006124506123e5565b90506000815111612470576040518060200160405280600081525061249b565b8061247a846127bd565b60405160200161248b9291906133f1565b6040516020818303038152906040525b915050919050565b600073ffffffffffffffffffffffffffffffffffffffff168273ffffffffffffffffffffffffffffffffffffffff161415612513576040517f08c379a000000000000000000000000000000000000000000000000000000000815260040161250a90613710565b60405180910390fd5b61251c81611881565b1561255c576040517f08c379a0000000000000000000000000000000000000000000000000000000008152600401612553906135b0565b60405180910390fd5b61256860008383612196565b6001600360008473ffffffffffffffffffffffffffffffffffffffff1673ffffffffffffffffffffffffffffffffffffffff16815260200190815260200160002060008282546125b89190613959565b92505081905550816002600083815260200190815260200160002060006101000a81548173ffffffffffffffffffffffffffffffffffffffff021916908373ffffffffffffffffffffffffffffffffffffffff160217905550808273ffffffffffffffffffffffffffffffffffffffff16600073ffffffffffffffffffffffffffffffffffffffff167fddf252ad1be2c89b69c2b068fc378daa952ba7f163c4a11628f55a4df523b3ef60405160405180910390a46126796000838361219b565b5050565b600061268882610bed565b905061269681600084612196565b6126a16000836118f5565b6001600360008373ffffffffffffffffffffffffffffffffffffffff1673ffffffffffffffffffffffffffffffffffffffff16815260200190815260200160002060008282546126f191906139e0565b925050819055506002600083815260200190815260200160002060006101000a81549073ffffffffffffffffffffffffffffffffffffffff021916905581600073ffffffffffffffffffffffffffffffffffffffff168273ffffffffffffffffffffffffffffffffffffffff167fddf252ad1be2c89b69c2b068fc378daa952ba7f163c4a11628f55a4df523b3ef60405160405180910390a46127968160008461219b565b5050565b6000808273ffffffffffffffffffffffffffffffffffffffff163b119050919050565b60606000821415612805576040518060400160405280600181526020017f30000000000000000000000000000000000000000000000000000000000000008152509050612965565b600082905060005b6000821461283757808061282090613b2d565b915050600a8261283091906139af565b915061280d565b60008167ffffffffffffffff811115612879577f4e487b7100000000000000000000000000000000000000000000000000000000600052604160045260246000fd5b6040519080825280601f01601f1916602001820160405280156128ab5781602001600182028036833780820191505090505b5090505b6000851461295e576001826128c491906139e0565b9150600a856128d39190613b76565b60306128df9190613959565b60f81b81838151811061291b577f4e487b7100000000000000000000000000000000000000000000000000000000600052603260045260246000fd5b60200101907effffffffffffffffffffffffffffffffffffffffffffffffffffffffffffff1916908160001a905350600a8561295791906139af565b94506128af565b8093505050505b919050565b604051806080016040528060008152602001600073ffffffffffffffffffffffffffffffffffffffff168152602001600081526020016000151581525090565b8280546129b690613aca565b90600052602060002090601f0160209004810192826129d85760008555612a1f565b82601f106129f157805160ff1916838001178555612a1f565b82800160010185558215612a1f579182015b82811115612a1e578251825591602001919060010190612a03565b5b509050612a2c9190612a70565b5090565b508054612a3c90613aca565b6000825580601f10612a4e5750612a6d565b601f016020900490600052602060002090810190612a6c9190612a70565b5b50565b5b80821115612a89576000816000905550600101612a71565b5090565b6000612aa0612a9b84613870565b61384b565b905082815260208101848484011115612ab857600080fd5b612ac3848285613a88565b509392505050565b6000612ade612ad9846138a1565b61384b565b905082815260208101848484011115612af657600080fd5b612b01848285613a88565b509392505050565b600081359050612b18816142db565b92915050565b600081359050612b2d816142f2565b92915050565b600081359050612b4281614309565b92915050565b600081519050612b5781614309565b92915050565b600082601f830112612b6e57600080fd5b8135612b7e848260208601612a8d565b91505092915050565b600082601f830112612b9857600080fd5b8135612ba8848260208601612acb565b91505092915050565b600081359050612bc081614320565b92915050565b600060208284031215612bd857600080fd5b6000612be684828501612b09565b91505092915050565b60008060408385031215612c0257600080fd5b6000612c1085828601612b09565b9250506020612c2185828601612b09565b9150509250929050565b600080600060608486031215612c4057600080fd5b6000612c4e86828701612b09565b9350506020612c5f86828701612b09565b9250506040612c7086828701612bb1565b9150509250925092565b60008060008060808587031215612c9057600080fd5b6000612c9e87828801612b09565b9450506020612caf87828801612b09565b9350506040612cc087828801612bb1565b925050606085013567ffffffffffffffff811115612cdd57600080fd5b612ce987828801612b5d565b91505092959194509250565b60008060408385031215612d0857600080fd5b6000612d1685828601612b09565b9250506020612d2785828601612b1e565b9150509250929050565b60008060408385031215612d4457600080fd5b6000612d5285828601612b09565b9250506020612d6385828601612bb1565b9150509250929050565b600060208284031215612d7f57600080fd5b6000612d8d84828501612b33565b91505092915050565b600060208284031215612da857600080fd5b6000612db684828501612b48565b91505092915050565b60008060408385031215612dd257600080fd5b600083013567ffffffffffffffff811115612dec57600080fd5b612df885828601612b87565b9250506020612e0985828601612bb1565b9150509250929050565b600060208284031215612e2557600080fd5b6000612e3384828501612bb1565b91505092915050565b60008060408385031215612e4f57600080fd5b6000612e5d85828601612bb1565b9250506020612e6e85828601612bb1565b9150509250929050565b6000612e84838361337e565b60808301905092915050565b612e9981613a14565b82525050565b612ea881613a14565b82525050565b6000612eb9826138e2565b612ec38185613910565b9350612ece836138d2565b8060005b83811015612eff578151612ee68882612e78565b9750612ef183613903565b925050600181019050612ed2565b5085935050505092915050565b612f1581613a26565b82525050565b612f2481613a26565b82525050565b6000612f35826138ed565b612f3f8185613921565b9350612f4f818560208601613a97565b612f5881613c63565b840191505092915050565b6000612f6e826138f8565b612f78818561393d565b9350612f88818560208601613a97565b612f9181613c63565b840191505092915050565b6000612fa7826138f8565b612fb1818561394e565b9350612fc1818560208601613a97565b80840191505092915050565b6000612fda60148361393d565b9150612fe582613c74565b602082019050919050565b6000612ffd60328361393d565b915061300882613c9d565b604082019050919050565b600061302060268361393d565b915061302b82613cec565b604082019050919050565b6000613043600f8361393d565b915061304e82613d3b565b602082019050919050565b6000613066600d8361393d565b915061307182613d64565b602082019050919050565b600061308960258361393d565b915061309482613d8d565b604082019050919050565b60006130ac601c8361393d565b91506130b782613ddc565b602082019050919050565b60006130cf600e8361393d565b91506130da82613e05565b602082019050919050565b60006130f260248361393d565b91506130fd82613e2e565b604082019050919050565b600061311560198361393d565b915061312082613e7d565b602082019050919050565b6000613138602c8361393d565b915061314382613ea6565b604082019050919050565b600061315b60388361393d565b915061316682613ef5565b604082019050919050565b600061317e602a8361393d565b915061318982613f44565b604082019050919050565b60006131a160298361393d565b91506131ac82613f93565b604082019050919050565b60006131c4602e8361393d565b91506131cf82613fe2565b604082019050919050565b60006131e760078361393d565b91506131f282614031565b602082019050919050565b600061320a60138361393d565b91506132158261405a565b602082019050919050565b600061322d60208361393d565b915061323882614083565b602082019050919050565b600061325060318361393d565b915061325b826140ac565b604082019050919050565b6000613273602c8361393d565b915061327e826140fb565b604082019050919050565b600061329660208361393d565b91506132a18261414a565b602082019050919050565b60006132b9602f8361393d565b91506132c482614173565b604082019050919050565b60006132dc60218361393d565b91506132e7826141c2565b604082019050919050565b60006132ff600083613932565b915061330a82614211565b600082019050919050565b600061332260318361393d565b915061332d82614214565b604082019050919050565b6000613345600b8361393d565b915061335082614263565b602082019050919050565b600061336860308361393d565b91506133738261428c565b604082019050919050565b60808201600082015161339460008501826133d3565b5060208201516133a76020850182612e90565b5060408201516133ba60408501826133d3565b5060608201516133cd6060850182612f0c565b50505050565b6133dc81613a7e565b82525050565b6133eb81613a7e565b82525050565b60006133fd8285612f9c565b91506134098284612f9c565b91508190509392505050565b6000613420826132f2565b9150819050919050565b600060208201905061343f6000830184612e9f565b92915050565b600060808201905061345a6000830187612e9f565b6134676020830186612e9f565b61347460408301856133e2565b81810360608301526134868184612f2a565b905095945050505050565b600060208201905081810360008301526134ab8184612eae565b905092915050565b60006020820190506134c86000830184612f1b565b92915050565b600060208201905081810360008301526134e88184612f63565b905092915050565b6000602082019050818103600083015261350981612fcd565b9050919050565b6000602082019050818103600083015261352981612ff0565b9050919050565b6000602082019050818103600083015261354981613013565b9050919050565b6000602082019050818103600083015261356981613036565b9050919050565b6000602082019050818103600083015261358981613059565b9050919050565b600060208201905081810360008301526135a98161307c565b9050919050565b600060208201905081810360008301526135c98161309f565b9050919050565b600060208201905081810360008301526135e9816130c2565b9050919050565b60006020820190508181036000830152613609816130e5565b9050919050565b6000602082019050818103600083015261362981613108565b9050919050565b600060208201905081810360008301526136498161312b565b9050919050565b600060208201905081810360008301526136698161314e565b9050919050565b6000602082019050818103600083015261368981613171565b9050919050565b600060208201905081810360008301526136a981613194565b9050919050565b600060208201905081810360008301526136c9816131b7565b9050919050565b600060208201905081810360008301526136e9816131da565b9050919050565b60006020820190508181036000830152613709816131fd565b9050919050565b6000602082019050818103600083015261372981613220565b9050919050565b6000602082019050818103600083015261374981613243565b9050919050565b6000602082019050818103600083015261376981613266565b9050919050565b6000602082019050818103600083015261378981613289565b9050919050565b600060208201905081810360008301526137a9816132ac565b9050919050565b600060208201905081810360008301526137c9816132cf565b9050919050565b600060208201905081810360008301526137e981613315565b9050919050565b6000602082019050818103600083015261380981613338565b9050919050565b600060208201905081810360008301526138298161335b565b9050919050565b600060208201905061384560008301846133e2565b92915050565b6000613855613866565b90506138618282613afc565b919050565b6000604051905090565b600067ffffffffffffffff82111561388b5761388a613c34565b5b61389482613c63565b9050602081019050919050565b600067ffffffffffffffff8211156138bc576138bb613c34565b5b6138c582613c63565b9050602081019050919050565b6000819050602082019050919050565b600081519050919050565b600081519050919050565b600081519050919050565b6000602082019050919050565b600082825260208201905092915050565b600082825260208201905092915050565b600081905092915050565b600082825260208201905092915050565b600081905092915050565b600061396482613a7e565b915061396f83613a7e565b9250827fffffffffffffffffffffffffffffffffffffffffffffffffffffffffffffffff038211156139a4576139a3613ba7565b5b828201905092915050565b60006139ba82613a7e565b91506139c583613a7e565b9250826139d5576139d4613bd6565b5b828204905092915050565b60006139eb82613a7e565b91506139f683613a7e565b925082821015613a0957613a08613ba7565b5b828203905092915050565b6000613a1f82613a5e565b9050919050565b60008115159050919050565b60007fffffffff0000000000000000000000000000000000000000000000000000000082169050919050565b600073ffffffffffffffffffffffffffffffffffffffff82169050919050565b6000819050919050565b82818337600083830152505050565b60005b83811015613ab5578082015181840152602081019050613a9a565b83811115613ac4576000848401525b50505050565b60006002820490506001821680613ae257607f821691505b60208210811415613af657613af5613c05565b5b50919050565b613b0582613c63565b810181811067ffffffffffffffff82111715613b2457613b23613c34565b5b80604052505050565b6000613b3882613a7e565b91507fffffffffffffffffffffffffffffffffffffffffffffffffffffffffffffffff821415613b6b57613b6a613ba7565b5b600182019050919050565b6000613b8182613a7e565b9150613b8c83613a7e565b925082613b9c57613b9b613bd6565b5b828206905092915050565b7f4e487b7100000000000000000000000000000000000000000000000000000000600052601160045260246000fd5b7f4e487b7100000000000000000000000000000000000000000000000000000000600052601260045260246000fd5b7f4e487b7100000000000000000000000000000000000000000000000000000000600052602260045260246000fd5b7f4e487b7100000000000000000000000000000000000000000000000000000000600052604160045260246000fd5b6000601f19601f8301169050919050565b7f63617264206f776e65722063616e277420627579000000000000000000000000600082015250565b7f4552433732313a207472616e7366657220746f206e6f6e20455243373231526560008201527f63656976657220696d706c656d656e7465720000000000000000000000000000602082015250565b7f4f776e61626c653a206e6577206f776e657220697320746865207a65726f206160008201527f6464726573730000000000000000000000000000000000000000000000000000602082015250565b7f5472616e73666572206661696c65640000000000000000000000000000000000600082015250565b7f707269636520746f6f206c6f7700000000000000000000000000000000000000600082015250565b7f4552433732313a207472616e736665722066726f6d20696e636f72726563742060008201527f6f776e6572000000000000000000000000000000000000000000000000000000602082015250565b7f4552433732313a20746f6b656e20616c7265616479206d696e74656400000000600082015250565b7f6e6f742063617264206f776e6572000000000000000000000000000000000000600082015250565b7f4552433732313a207472616e7366657220746f20746865207a65726f2061646460008201527f7265737300000000000000000000000000000000000000000000000000000000602082015250565b7f4552433732313a20617070726f766520746f2063616c6c657200000000000000600082015250565b7f4552433732313a206f70657261746f7220717565727920666f72206e6f6e657860008201527f697374656e7420746f6b656e0000000000000000000000000000000000000000602082015250565b7f4552433732313a20617070726f76652063616c6c6572206973206e6f74206f7760008201527f6e6572206e6f7220617070726f76656420666f7220616c6c0000000000000000602082015250565b7f4552433732313a2062616c616e636520717565727920666f7220746865207a6560008201527f726f206164647265737300000000000000000000000000000000000000000000602082015250565b7f4552433732313a206f776e657220717565727920666f72206e6f6e657869737460008201527f656e7420746f6b656e0000000000000000000000000000000000000000000000602082015250565b7f45524337323155524953746f726167653a2055524920736574206f66206e6f6e60008201527f6578697374656e7420746f6b656e000000000000000000000000000000000000602082015250565b7f6f6e2073616c6500000000000000000000000000000000000000000000000000600082015250565b7f416d6f756e742073656e7420746f6f206c6f7700000000000000000000000000600082015250565b7f4552433732313a206d696e7420746f20746865207a65726f2061646472657373600082015250565b7f45524337323155524953746f726167653a2055524920717565727920666f722060008201527f6e6f6e6578697374656e7420746f6b656e000000000000000000000000000000602082015250565b7f4552433732313a20617070726f76656420717565727920666f72206e6f6e657860008201527f697374656e7420746f6b656e0000000000000000000000000000000000000000602082015250565b7f4f776e61626c653a2063616c6c6572206973206e6f7420746865206f776e6572600082015250565b7f4552433732314d657461646174613a2055524920717565727920666f72206e6f60008201527f6e6578697374656e7420746f6b656e0000000000000000000000000000000000602082015250565b7f4552433732313a20617070726f76616c20746f2063757272656e74206f776e6560008201527f7200000000000000000000000000000000000000000000000000000000000000602082015250565b50565b7f4552433732313a207472616e736665722063616c6c6572206973206e6f74206f60008201527f776e6572206e6f7220617070726f766564000000000000000000000000000000602082015250565b7f6e6f74206f6e2073616c65000000000000000000000000000000000000000000600082015250565b7f4552433732314275726e61626c653a2063616c6c6572206973206e6f74206f7760008201527f6e6572206e6f7220617070726f76656400000000000000000000000000000000602082015250565b6142e481613a14565b81146142ef57600080fd5b50565b6142fb81613a26565b811461430657600080fd5b50565b61431281613a32565b811461431d57600080fd5b50565b61432981613a7e565b811461433457600080fd5b5056fea2646970667358221220a321be2cd6699dd17d6107f7d38117068a0d3be101528c8b95881da1ebc3865264736f6c63430008040033",
  "linkReferences": {},
  "deployedLinkReferences": {}
}